:101C000012C02CC02BC02AC029C028C027C026C0A3
:101C100025C024C023C022C021C020C01FC01EC0B8
:101C20001DC01CC01BC011241FBECFE5D4E0DEBF09
:101C3000CDBF10E0A0E6B0E0E4EDFFE102C005900A
:101C40000D92A236B107D9F711E0A2E6B0E001C0CB
:101C50001D92AA36B107E1F74AD0BAC1D1CF5D9B38
:101C6000FECF8CB90895EF92FF920F931F93EE244D
:101C7000FF24870113C00894E11CF11C011D111DF4
:101C800081E8E81684E8F8068EE1080780E0180786
:101C900028F0E0916200F091630009955F9BEBCF23
:101CA0008CB11F910F91FF90EF9008950F931F93A8
:101CB000082F10E002C0D7DF1F5F1017E0F31F915D
:101CC0000F9108951F93182FCEDF803231F484E1F5
:101CD000C6DF812FC4DF80E1C2DF1F910895C3DF1B
:101CE000803221F484E1BBDF80E1B9CF08950F9306
:101CF0001F93CF93DF93000010BC8CE089B988E17B
:101D00008AB986E880BDBD9A1092680120E030E271
:101D100040E050E007C088B3832788BBCA01019721
:101D2000F1F72F5F2031B8F3209368019CDF8033F7
:101D300081F1813399F497DF8032C1F784E18FDF3D
:101D400081E48DDF86E58BDF82E589DF80E287DF56
:101D500089E485DF83E583DF80E530C1803429F4C1
:101D600082DF8638B0F07FDF14C0813471F47BDF0E
:101D7000803811F482E02AC1813811F481E026C153
:101D8000823809F022C182E121C1823421F484E148
:101D90008DDFA5DFCBCF853411F485E0F9CF803519
:101DA000C1F38135B1F38235A1F3853539F45BDFB9
:101DB0008093640058DF80936500EBCF863519F47B
:101DC00084E074DF02C1843609F098C04CDF809350
:101DD000670149DF80936601809169018E7F80935E
:101DE000690141DF853429F4809169018160809324
:101DF000690100E010E007C036DFF801EA59FF4F43
:101E000080830F5F1F4F80916601909167010817D3
:101E1000190790F328DF803209F088CF809169019B
:101E200080FF27C060916601709167012091640076
:101E30003091650080E090E012C0AC01420F531F6A
:101E4000FC01EA59FF4FE081E199FECF5FBB4EBB39
:101E5000EDBB0FB6F894E29AE19A0FBE0196861791
:101E6000970758F3260F371F3093650020936400BF
:101E700043C0F894E199FECF1127E0916400F091FE
:101E80006500EE0FFF1FC6E6D0E0809166019091DD
:101E9000670180FF01C00196103051F422D003E0A9
:101EA00000935700E8951DD001E100935700E89595
:101EB0000990199016D001E000935700E89513950A
:101EC000103258F011270DD005E000935700E89527
:101ED00008D001E100935700E8953296029739F057
:101EE000DBCF0091570001700130D9F30895103015
:101EF00011F00296E7CF112484E160C0843709F025
:101F000050C0B1DE80936701AEDE80936601ABDE28
:101F100090916901853421F49160909369010DC01D
:101F20009E7F909369018091640090916500880F75
:101F3000991F909365008093640095DE803209F0CC
:101F4000F5CE84E18CDE00E010E023C080916901D1
:101F500080FF0BC08091640090916500E199FECFF5
:101F60009FBB8EBBE09A8DB308C081FD07C0E09196
:101F70006400F0916500E4918E2F71DE8091640021
:101F800090916500019690936500809364000F5FC7
:101F90001F4F809166019091670108171907B0F2F1
:101FA0000EC0853779F45FDE803209F0BFCE84E160
:101FB00056DE8EE154DE83E952DE87E050DE80E1BA
:101FC0004EDEB4CE863709F0B1CE80E07BDEAECEF9
:041FD000F894FFCFB3
:021FD40080008B
:0400000300001C00DD
:00000001FF
